:10000000700A0020F1000000ED000000ED0000008B
:1000100000000000000000000000000000000000E0
:10002000000000000000000000000000ED000000E3
:100030000000000000000000ED000000ED000000E6
:10004000ED000000ED000000ED000000ED000000FC
:10005000ED000000ED000000ED000000ED000000EC
:10006000ED000000ED000000ED00000000000000C9
:10007000ED000000ED000000ED000000ED000000CC
:10008000ED000000ED000000ED00000010B5064C92
:100090002378002B07D1054B002B02D0044800E049
:1000A00000BF0123237010BD2C04002000000000BD
:1000B00038030000084B10B5002B03D0074908484F
:1000C00000E000BF07480368002B00D110BD064BBD
:1000D000002BFBD09847F9E7000000003004002017
:1000E000380300003803000000000000FEE70000B5
:1000F0001348144970B5884204D00023124CCA1822
:10010000A24216D30021114B114A934215D3FF216D
:10011000104B114A8B439360104B002B00D0984733
:100120000F4B98470F4B002B00D098470E4B98472A
:10013000FEE7C55804331560E1E702C3E5E7C046B2
:1001400038030000000000202C0400202C040020B4
:100150006C0400200000000000ED00E00000000042
:1001600071010000000000006D01000000207047D8
:1001700070B50D4E0D4D0024AD1BAD1005D0A30084
:10018000F35801349847A542F9D100F0C3F8084E5E
:10019000084D0024AD1BAD1005D0A300F358013469
:1001A0009847A542F9D170BD20030000200300004C
:1001B0002003000028030000034B10B5002B02D0E1
:1001C000024800F005F810BD00000000E101000049
:1001D00010B5010000230022002000F01FF810BD20
:1001E00070B5094B094CE41AA41009D0084AA518A7
:1001F000AD00ED182B68013C9847043D002CF9D167
:1002000000F092F870BDC0463403000038030000CF
:10021000FFFFFF3F7047C0467047C046F0B54E46EF
:100220004546DE465746E0B5364D83B006002868A1
:1002300098460F009146FFF7EDFF334B1C68A4234F
:100240005B00E058002852D043681F2B13DC5A1C77
:100250000192002E28D1019A02339B0042601F5068
:100260002868FFF7D9FF002003B03CBC90469946B0
:10027000A246AB46F0BD254B002B3DD0C820400028
:1002800000E000BF002837D0A42200235200A1586C
:1002900043600160A05040328350043283500133E8
:1002A00001930023002ED6D09A00924682444A46FB
:1002B000882154466250C4225200914681444A46E5
:1002C0008739994012688B460A4394464A466146EC
:1002D0001160842241465200A150022EBBD102007F
:1002E0005C468D32FF3211680C431460B3E7200086
:1002F0004D30FF30E050A7E72868FFF78DFF012061
:100300004042B1E728040020100300000000000074
:1003100000000020F8B5C046F8BC08BC9E467047F7
:10032000B9010000B5000000F8B5C046F8BC08BC33
:080330009E4670478D0000009D
:1003380000000000EC02002054030020BC03002051
:1003480000000000000000000000000000000000A5
:100358000000000000000000000000000000000095
:100368000000000000000000000000000000000085
:100378000000000000000000000000000000000075
:100388000000000000000000000000000000000065
:100398000000000000000000000000000000000055
:1003A8000000000000000000000000000000000045
:1003B8000000000000000000000000000000000035
:1003C8000000000000000000000000000000000025
:1003D8000000000000000000010000000000000014
:1003E8000E33CDAB34126DE6ECDE05000B000000D9
:1003F80000000000000000000000000000000000F5
:1004080000000000000000000000000000000000E4
:1004180000000000000000000000000000000000D4
:1004280000000000000000000000000000000000C4
:0C07580000000000000000004804002029
:00000001FF
